{
  "contractName": "MarketContract",
  "abi": [
    {
      "anonymous": false,
      "inputs": [
        {
          "indexed": false,
          "internalType": "uint256",
          "name": "",
          "type": "uint256"
        }
      ],
      "name": "logger",
      "type": "event"
    },
    {
      "anonymous": false,
      "inputs": [
        {
          "indexed": false,
          "internalType": "bool",
          "name": "",
          "type": "bool"
        }
      ],
      "name": "logger",
      "type": "event"
    },
    {
      "constant": true,
      "inputs": [
        {
          "internalType": "address",
          "name": "",
          "type": "address"
        }
      ],
      "name": "balanceOf",
      "outputs": [
        {
          "internalType": "uint256",
          "name": "",
          "type": "uint256"
        }
      ],
      "payable": false,
      "stateMutability": "view",
      "type": "function"
    },
    {
      "constant": true,
      "inputs": [],
      "name": "getHouseForSale",
      "outputs": [
        {
          "internalType": "uint256",
          "name": "idHome",
          "type": "uint256"
        },
        {
          "internalType": "uint256",
          "name": "price",
          "type": "uint256"
        },
        {
          "internalType": "string",
          "name": "addressHome",
          "type": "string"
        },
        {
          "internalType": "uint256",
          "name": "squareMeter",
          "type": "uint256"
        },
        {
          "internalType": "string",
          "name": "description",
          "type": "string"
        },
        {
          "internalType": "uint256",
          "name": "hashDocuments",
          "type": "uint256"
        },
        {
          "internalType": "address",
          "name": "publicAddressSolder",
          "type": "address"
        },
        {
          "internalType": "bool",
          "name": "forSale",
          "type": "bool"
        }
      ],
      "payable": false,
      "stateMutability": "view",
      "type": "function"
    },
    {
      "constant": true,
      "inputs": [
        {
          "internalType": "uint256",
          "name": "",
          "type": "uint256"
        }
      ],
      "name": "houses",
      "outputs": [
        {
          "internalType": "uint256",
          "name": "idHome",
          "type": "uint256"
        },
        {
          "internalType": "uint256",
          "name": "price",
          "type": "uint256"
        },
        {
          "internalType": "string",
          "name": "addressHome",
          "type": "string"
        },
        {
          "internalType": "uint256",
          "name": "squareMeter",
          "type": "uint256"
        },
        {
          "internalType": "string",
          "name": "description",
          "type": "string"
        },
        {
          "internalType": "uint256",
          "name": "hashDocuments",
          "type": "uint256"
        },
        {
          "internalType": "address",
          "name": "publicAddressSolder",
          "type": "address"
        },
        {
          "internalType": "bool",
          "name": "forSale",
          "type": "bool"
        }
      ],
      "payable": false,
      "stateMutability": "view",
      "type": "function"
    },
    {
      "constant": true,
      "inputs": [
        {
          "internalType": "address",
          "name": "",
          "type": "address"
        }
      ],
      "name": "ownerToHouse",
      "outputs": [
        {
          "internalType": "uint256",
          "name": "",
          "type": "uint256"
        }
      ],
      "payable": false,
      "stateMutability": "view",
      "type": "function"
    },
    {
      "constant": false,
      "inputs": [
        {
          "internalType": "uint256",
          "name": "_id",
          "type": "uint256"
        },
        {
          "internalType": "uint256",
          "name": "_price",
          "type": "uint256"
        },
        {
          "internalType": "string",
          "name": "_addressHome",
          "type": "string"
        },
        {
          "internalType": "uint256",
          "name": "_squareMeter",
          "type": "uint256"
        },
        {
          "internalType": "string",
          "name": "_description",
          "type": "string"
        },
        {
          "internalType": "uint256",
          "name": "_hashDocuments",
          "type": "uint256"
        }
      ],
      "name": "createHouse",
      "outputs": [],
      "payable": false,
      "stateMutability": "nonpayable",
      "type": "function"
    },
    {
      "constant": false,
      "inputs": [
        {
          "internalType": "uint256",
          "name": "index",
          "type": "uint256"
        }
      ],
      "name": "removeAtIndex",
      "outputs": [],
      "payable": false,
      "stateMutability": "nonpayable",
      "type": "function"
    },
    {
      "constant": false,
      "inputs": [
        {
          "internalType": "uint256",
          "name": "_idHome",
          "type": "uint256"
        },
        {
          "internalType": "address payable",
          "name": "_addressBuyer",
          "type": "address"
        }
      ],
      "name": "buyingHouse",
      "outputs": [
        {
          "internalType": "bool",
          "name": "",
          "type": "bool"
        }
      ],
      "payable": true,
      "stateMutability": "payable",
      "type": "function"
    },
    {
      "constant": true,
      "inputs": [],
      "name": "getAllHousesWithDetails",
      "outputs": [
        {
          "components": [
            {
              "internalType": "uint256",
              "name": "idHome",
              "type": "uint256"
            },
            {
              "internalType": "uint256",
              "name": "price",
              "type": "uint256"
            },
            {
              "internalType": "string",
              "name": "addressHome",
              "type": "string"
            },
            {
              "internalType": "uint256",
              "name": "squareMeter",
              "type": "uint256"
            },
            {
              "internalType": "string",
              "name": "description",
              "type": "string"
            },
            {
              "internalType": "uint256",
              "name": "hashDocuments",
              "type": "uint256"
            },
            {
              "internalType": "address",
              "name": "publicAddressSolder",
              "type": "address"
            },
            {
              "internalType": "bool",
              "name": "forSale",
              "type": "bool"
            }
          ],
          "internalType": "struct MarketContract.House[]",
          "name": "",
          "type": "tuple[]"
        }
      ],
      "payable": false,
      "stateMutability": "view",
      "type": "function"
    },
    {
      "constant": true,
      "inputs": [
        {
          "internalType": "uint256",
          "name": "_idHouse",
          "type": "uint256"
        }
      ],
      "name": "getHouse",
      "outputs": [
        {
          "components": [
            {
              "internalType": "uint256",
              "name": "idHome",
              "type": "uint256"
            },
            {
              "internalType": "uint256",
              "name": "price",
              "type": "uint256"
            },
            {
              "internalType": "string",
              "name": "addressHome",
              "type": "string"
            },
            {
              "internalType": "uint256",
              "name": "squareMeter",
              "type": "uint256"
            },
            {
              "internalType": "string",
              "name": "description",
              "type": "string"
            },
            {
              "internalType": "uint256",
              "name": "hashDocuments",
              "type": "uint256"
            },
            {
              "internalType": "address",
              "name": "publicAddressSolder",
              "type": "address"
            },
            {
              "internalType": "bool",
              "name": "forSale",
              "type": "bool"
            }
          ],
          "internalType": "struct MarketContract.House",
          "name": "",
          "type": "tuple"
        }
      ],
      "payable": false,
      "stateMutability": "view",
      "type": "function"
    },
    {
      "constant": false,
      "inputs": [
        {
          "internalType": "uint256",
          "name": "_idHouse",
          "type": "uint256"
        }
      ],
      "name": "houseForSale",
      "outputs": [],
      "payable": false,
      "stateMutability": "nonpayable",
      "type": "function"
    }
  ],
  "bytecode": "0x60806040526003600055600060015534801561001a57600080fd5b50611c348061002a6000396000f3fe6080604052600436106100915760003560e01c80636960fbf6116100595780636960fbf61461019457806370a08231146101bd57806376a48c71146101fa57806378a949a714610223578063aeda852f1461025557610091565b806307d6471b146100965780633107c99d146100d3578063368ef2b7146101105780636478802c14610140578063660861b714610169575b600080fd5b3480156100a257600080fd5b506100bd60048036036100b89190810190611530565b610299565b6040516100ca9190611999565b60405180910390f35b3480156100df57600080fd5b506100fa60048036036100f59190810190611559565b6102b1565b6040516101079190611977565b60405180910390f35b61012a60048036036101259190810190611582565b610512565b604051610137919061195c565b60405180910390f35b34801561014c57600080fd5b5061016760048036036101629190810190611559565b6106f5565b005b34801561017557600080fd5b5061017e6107c4565b60405161018b919061193a565b60405180910390f35b3480156101a057600080fd5b506101bb60048036036101b691908101906115be565b610a01565b005b3480156101c957600080fd5b506101e460048036036101df9190810190611530565b610c22565b6040516101f19190611999565b60405180910390f35b34801561020657600080fd5b50610221600480360361021c9190810190611559565b610c3a565b005b34801561022f57600080fd5b50610238610e5c565b60405161024c9897969594939291906119b4565b60405180910390f35b34801561026157600080fd5b5061027c60048036036102779190810190611559565b610fef565b6040516102909897969594939291906119b4565b60405180910390f35b600d6020528060005260406000206000915090505481565b6102b96112cc565b60008090505b60028054905081101561050b5782600282815481106102da57fe5b90600052602060002090600702016000015414156104fe57600281815481106102ff57fe5b9060005260206000209060070201604051806101000160405290816000820154815260200160018201548152602001600282018054600181600116156101000203166002900480601f0160208091040260200160405190810160405280929190818152602001828054600181600116156101000203166002900480156103c65780601f1061039b576101008083540402835291602001916103c6565b820191906000526020600020905b8154815290600101906020018083116103a957829003601f168201915b5050505050815260200160038201548152602001600482018054600181600116156101000203166002900480601f0160208091040260200160405190810160405280929190818152602001828054600181600116156101000203166002900480156104725780601f1061044757610100808354040283529160200191610472565b820191906000526020600020905b81548152906001019060200180831161045557829003601f168201915b50505050508152602001600582015481526020016006820160009054906101000a900473ffffffffffffffffffffffffffffffffffffffff1673ffffffffffffffffffffffffffffffffffffffff1673ffffffffffffffffffffffffffffffffffffffff1681526020016006820160149054906101000a900460ff16151515158152505091505061050d565b80806001019150506102bf565b505b919050565b600061051d836111a1565b801561052e575061052d83611291565b5b1561066c578173ffffffffffffffffffffffffffffffffffffffff166108fc6002858154811061055a57fe5b9060005260206000209060070201600101549081150290604051600060405180830381858888f19350505050158015610597573d6000803e3d6000fd5b5082600d60008473ffffffffffffffffffffffffffffffffffffffff1673ffffffffffffffffffffffffffffffffffffffff168152602001908152602001600020819055506105e583610c3a565b7f7e6ed7b81c10acbeb2294f945bc7d3dda11594ee8607c868cfdbbcd4c3e0049561060f846111a1565b60405161061c919061195c565b60405180910390a17f7e6ed7b81c10acbeb2294f945bc7d3dda11594ee8607c868cfdbbcd4c3e0049561064e84611291565b60405161065b919061195c565b60405180910390a1600190506106ef565b7f7e6ed7b81c10acbeb2294f945bc7d3dda11594ee8607c868cfdbbcd4c3e00495610696846111a1565b6040516106a3919061195c565b60405180910390a17f7e6ed7b81c10acbeb2294f945bc7d3dda11594ee8607c868cfdbbcd4c3e004956106d584611291565b6040516106e2919061195c565b60405180910390a1600090505b92915050565b8080600d60003373ffffffffffffffffffffffffffffffffffffffff1673ffffffffffffffffffffffffffffffffffffffff168152602001908152602001600020541461074157600080fd5b60008090505b6002805490508110156107bf57826002828154811061076257fe5b90600052602060002090600702016000015414156107b25760016002828154811061078957fe5b906000526020600020906007020160060160146101000a81548160ff0219169083151502179055505b8080600101915050610747565b505050565b60606002805480602002602001604051908101604052809291908181526020016000905b828210156109f85783829060005260206000209060070201604051806101000160405290816000820154815260200160018201548152602001600282018054600181600116156101000203166002900480601f0160208091040260200160405190810160405280929190818152602001828054600181600116156101000203166002900480156108b95780601f1061088e576101008083540402835291602001916108b9565b820191906000526020600020905b81548152906001019060200180831161089c57829003601f168201915b5050505050815260200160038201548152602001600482018054600181600116156101000203166002900480601f0160208091040260200160405190810160405280929190818152602001828054600181600116156101000203166002900480156109655780601f1061093a57610100808354040283529160200191610965565b820191906000526020600020905b81548152906001019060200180831161094857829003601f168201915b50505050508152602001600582015481526020016006820160009054906101000a900473ffffffffffffffffffffffffffffffffffffffff1673ffffffffffffffffffffffffffffffffffffffff1673ffffffffffffffffffffffffffffffffffffffff1681526020016006820160149054906101000a900460ff161515151581525050815260200190600101906107e8565b50505050905090565b610a096112cc565b6040518061010001604052808881526020018781526020018681526020018581526020018481526020018381526020013373ffffffffffffffffffffffffffffffffffffffff1681526020016000151581525090506002819080600181540180825580915050906001820390600052602060002090600702016000909192909190915060008201518160000155602082015181600101556040820151816002019080519060200190610abc929190611329565b50606082015181600301556080820151816004019080519060200190610ae3929190611329565b5060a0820151816005015560c08201518160060160006101000a81548173ffffffffffffffffffffffffffffffffffffffff021916908373ffffffffffffffffffffffffffffffffffffffff16021790555060e08201518160060160146101000a81548160ff021916908315150217905550505050600280549050600d60003373ffffffffffffffffffffffffffffffffffffffff1673ffffffffffffffffffffffffffffffffffffffff16815260200190815260200160002081905550600160008154809291906001019190505550600a3390806001815401808255809150509060018203906000526020600020016000909192909190916101000a81548173ffffffffffffffffffffffffffffffffffffffff021916908373ffffffffffffffffffffffffffffffffffffffff1602179055505050505050505050565b600f6020528060005260406000206000915090505481565b6002805490508110610c4b57610e59565b60008190505b600160028054905003811015610db65760026001820181548110610c7157fe5b906000526020600020906007020160028281548110610c8c57fe5b9060005260206000209060070201600082015481600001556001820154816001015560028201816002019080546001816001161561010002031660029004610cd59291906113a9565b506003820154816003015560048201816004019080546001816001161561010002031660029004610d079291906113a9565b50600582015481600501556006820160009054906101000a900473ffffffffffffffffffffffffffffffffffffffff168160060160006101000a81548173ffffffffffffffffffffffffffffffffffffffff021916908373ffffffffffffffffffffffffffffffffffffffff1602179055506006820160149054906101000a900460ff168160060160146101000a81548160ff0219169083151502179055509050508080600101915050610c51565b50600260016002805490500381548110610dcc57fe5b90600052602060002090600702016000808201600090556001820160009055600282016000610dfb9190611430565b6003820160009055600482016000610e139190611430565b60058201600090556006820160006101000a81549073ffffffffffffffffffffffffffffffffffffffff02191690556006820160146101000a81549060ff021916905550505b50565b6003806000015490806001015490806002018054600181600116156101000203166002900480601f016020809104026020016040519081016040528092919081815260200182805460018160011615610100020316600290048015610f025780601f10610ed757610100808354040283529160200191610f02565b820191906000526020600020905b815481529060010190602001808311610ee557829003601f168201915b505050505090806003015490806004018054600181600116156101000203166002900480601f016020809104026020016040519081016040528092919081815260200182805460018160011615610100020316600290048015610fa65780601f10610f7b57610100808354040283529160200191610fa6565b820191906000526020600020905b815481529060010190602001808311610f8957829003601f168201915b5050505050908060050154908060060160009054906101000a900473ffffffffffffffffffffffffffffffffffffffff16908060060160149054906101000a900460ff16905088565b60028181548110610ffc57fe5b9060005260206000209060070201600091509050806000015490806001015490806002018054600181600116156101000203166002900480601f0160208091040260200160405190810160405280929190818152602001828054600181600116156101000203166002900480156110b45780601f10611089576101008083540402835291602001916110b4565b820191906000526020600020905b81548152906001019060200180831161109757829003601f168201915b505050505090806003015490806004018054600181600116156101000203166002900480601f0160208091040260200160405190810160405280929190818152602001828054600181600116156101000203166002900480156111585780601f1061112d57610100808354040283529160200191611158565b820191906000526020600020905b81548152906001019060200180831161113b57829003601f168201915b5050505050908060050154908060060160009054906101000a900473ffffffffffffffffffffffffffffffffffffffff16908060060160149054906101000a900460ff16905088565b600080600090505b600a805490508110156112865782600d6000600a84815481106111c857fe5b9060005260206000200160009054906101000a900473ffffffffffffffffffffffffffffffffffffffff1673ffffffffffffffffffffffffffffffffffffffff1673ffffffffffffffffffffffffffffffffffffffff1681526020019081526020016000205414801561126a5750600115156002848154811061124757fe5b906000526020600020906007020160060160149054906101000a900460ff161515145b1561127957600191505061128c565b80806001019150506111a9565b50600090505b919050565b6000600282815481106112a057fe5b9060005260206000209060070201600101543414156112c257600190506112c7565b600090505b919050565b604051806101000160405280600081526020016000815260200160608152602001600081526020016060815260200160008152602001600073ffffffffffffffffffffffffffffffffffffffff1681526020016000151581525090565b828054600181600116156101000203166002900490600052602060002090601f016020900481019282601f1061136a57805160ff1916838001178555611398565b82800160010185558215611398579182015b8281111561139757825182559160200191906001019061137c565b5b5090506113a59190611478565b5090565b828054600181600116156101000203166002900490600052602060002090601f016020900481019282601f106113e2578054855561141f565b8280016001018555821561141f57600052602060002091601f016020900482015b8281111561141e578254825591600101919060010190611403565b5b50905061142c9190611478565b5090565b50805460018160011615610100020316600290046000825580601f106114565750611475565b601f0160209004906000526020600020908101906114749190611478565b5b50565b61149a91905b8082111561149657600081600090555060010161147e565b5090565b90565b6000813590506114ac81611bac565b92915050565b6000813590506114c181611bc3565b92915050565b600082601f8301126114d857600080fd5b81356114eb6114e682611a6d565b611a40565b9150808252602083016020830185838301111561150757600080fd5b611512838284611b59565b50505092915050565b60008135905061152a81611bda565b92915050565b60006020828403121561154257600080fd5b60006115508482850161149d565b91505092915050565b60006020828403121561156b57600080fd5b60006115798482850161151b565b91505092915050565b6000806040838503121561159557600080fd5b60006115a38582860161151b565b92505060206115b4858286016114b2565b9150509250929050565b60008060008060008060c087890312156115d757600080fd5b60006115e589828a0161151b565b96505060206115f689828a0161151b565b955050604087013567ffffffffffffffff81111561161357600080fd5b61161f89828a016114c7565b945050606061163089828a0161151b565b935050608087013567ffffffffffffffff81111561164d57600080fd5b61165989828a016114c7565b92505060a061166a89828a0161151b565b9150509295509295509295565b60006116838383611865565b905092915050565b61169481611aff565b82525050565b6116a381611aff565b82525050565b60006116b482611aa9565b6116be8185611acc565b9350836020820285016116d085611a99565b8060005b8581101561170c57848403895281516116ed8582611677565b94506116f883611abf565b925060208a019950506001810190506116d4565b50829750879550505050505092915050565b61172781611b23565b82525050565b61173681611b23565b82525050565b600061174782611ab4565b6117518185611add565b9350611761818560208601611b68565b61176a81611b9b565b840191505092915050565b600061178082611ab4565b61178a8185611aee565b935061179a818560208601611b68565b6117a381611b9b565b840191505092915050565b6000610100830160008301516117c7600086018261191c565b5060208301516117da602086018261191c565b50604083015184820360408601526117f2828261173c565b9150506060830151611807606086018261191c565b506080830151848203608086015261181f828261173c565b91505060a083015161183460a086018261191c565b5060c083015161184760c086018261168b565b5060e083015161185a60e086018261171e565b508091505092915050565b60006101008301600083015161187e600086018261191c565b506020830151611891602086018261191c565b50604083015184820360408601526118a9828261173c565b91505060608301516118be606086018261191c565b50608083015184820360808601526118d6828261173c565b91505060a08301516118eb60a086018261191c565b5060c08301516118fe60c086018261168b565b5060e083015161191160e086018261171e565b508091505092915050565b61192581611b4f565b82525050565b61193481611b4f565b82525050565b6000602082019050818103600083015261195481846116a9565b905092915050565b6000602082019050611971600083018461172d565b92915050565b6000602082019050818103600083015261199181846117ae565b905092915050565b60006020820190506119ae600083018461192b565b92915050565b6000610100820190506119ca600083018b61192b565b6119d7602083018a61192b565b81810360408301526119e98189611775565b90506119f8606083018861192b565b8181036080830152611a0a8187611775565b9050611a1960a083018661192b565b611a2660c083018561169a565b611a3360e083018461172d565b9998505050505050505050565b6000604051905081810181811067ffffffffffffffff82111715611a6357600080fd5b8060405250919050565b600067ffffffffffffffff821115611a8457600080fd5b601f19601f8301169050602081019050919050565b6000819050602082019050919050565b600081519050919050565b600081519050919050565b6000602082019050919050565b600082825260208201905092915050565b600082825260208201905092915050565b600082825260208201905092915050565b6000611b0a82611b2f565b9050919050565b6000611b1c82611b2f565b9050919050565b60008115159050919050565b600073ffffffffffffffffffffffffffffffffffffffff82169050919050565b6000819050919050565b82818337600083830152505050565b60005b83811015611b86578082015181840152602081019050611b6b565b83811115611b95576000848401525b50505050565b6000601f19601f8301169050919050565b611bb581611aff565b8114611bc057600080fd5b50565b611bcc81611b11565b8114611bd757600080fd5b50565b611be381611b4f565b8114611bee57600080fd5b5056fea365627a7a72315820582555039057b144f990f178ee8895b21cac4e2e167d91d06d2791240281d9756c6578706572696d656e74616cf564736f6c63430005100040",
  "source": "pragma solidity >=0.4.21 <0.7.0;\npragma experimental ABIEncoderV2;\n\ncontract MarketContract {\n\n    uint nbHouseAllowed = 3;\n    uint countHouses = 0;\n\n    // Caractristiques d'une maison\n    struct House {\n        uint idHome;\n        uint price;\n        string addressHome;\n        uint squareMeter;\n        string description;\n        uint hashDocuments; // une emprunte RGPD de la maison\n        address publicAddressSolder;\n        bool forSale;\n        //others elements\n    }\n\n    event logger(uint);\n    event logger(bool);\n\n    House[] public houses;\n    House public getHouseForSale;\n    address[] owners;\n\n    address houseOwner;\n    address houseBuyer;\n\n    mapping (address => uint) public ownerToHouse;\n    mapping (address => uint) ownerHouseCount;\n    mapping (address => uint256) public balanceOf;\n\n    //vrifier si une maison appartient bien au bon propritaire\n    modifier onlyOwner(uint _idHome) {\n        require(ownerToHouse[msg.sender] == _idHome);\n        _;\n    }\n\n    // crer des maisons\n    function createHouse(\n        uint _id, uint _price, string memory _addressHome, uint _squareMeter, string memory _description, uint _hashDocuments\n    ) public {\n        House memory newHouse = House(_id, _price, _addressHome, _squareMeter, _description, _hashDocuments, msg.sender, false);\n        houses.push(newHouse);\n        ownerToHouse[msg.sender] = houses.length;\n        countHouses++;\n        owners.push(msg.sender);\n    }\n\n    // Vrifie si la maison est bien dans la liste des maisons  vendre\n    function checkHouseForSale(uint _idHome) private view returns (bool) {\n        for(uint i = 0; i < owners.length; i++) {\n            if (ownerToHouse[owners[i]] == _idHome && houses[_idHome].forSale == true) {\n                return true;\n            }\n        }\n        return false;\n    }\n\n    // Vrifier le prix de la maison\n    function checkPriceHouse(uint _idHome) private view returns (bool) {\n        if (msg.value == houses[_idHome].price) return true;\n        return false;\n    }\n\n\n    function removeAtIndex(uint index) public {\n        if (index >= houses.length) return;\n\n        for (uint i = index; i < houses.length-1; i++) {\n        houses[i] = houses[i+1];\n        }\n\n        delete houses[houses.length-1];\n        //houses.length--;\n    }\n\n    /* Send coins */\n    // function transfer(address _to, uint256 _value) public {\n    //     require(balanceOf[msg.sender] >= _value);           // Check if the sender has enough\n    //     require(balanceOf[_to] + _value >= balanceOf[_to]); // Check for overflows\n    //     balanceOf[msg.sender] -= _value;                    // Subtract from the sender\n    //     balanceOf[_to] += _value;                           // Add the same to the recipient\n    // }\n\n    // function purchase of an hous\n    // address payable => transfrer\n    // fct public payable => recevoir\n    function buyingHouse(uint _idHome, address payable _addressBuyer) public payable returns (bool) {\n        if(checkHouseForSale(_idHome) && checkPriceHouse(_idHome)) {    // checker si la maison est en vente, si le montant est correct\n            _addressBuyer.transfer(houses[_idHome].price);              // transfer ethers\n            ownerToHouse[_addressBuyer] = _idHome;                      // transfert de proprit: obtenir la maison du vendeur et mettre l'addresse de l'acheteur\n            removeAtIndex(_idHome);                                     // enlever la maison de la liste de ventes\n            emit logger(checkHouseForSale(_idHome));\n            emit logger(checkPriceHouse(_idHome));\n            return true;\n        }\n        emit logger(checkHouseForSale(_idHome));\n        emit logger(checkPriceHouse(_idHome));\n        return false;\n    }\n\n    // Get all details of houses\n    function getAllHousesWithDetails() public view returns(House[] memory) {\n        return houses;\n    }\n\n    function getHouse(uint _idHouse) public view returns (House memory) {\n        for(uint i = 0; i < houses.length; i++) {\n            if(houses[i].idHome == _idHouse) {\n                return houses[i];\n            }\n        }\n    }\n\n    // Put house for sale by an owner\n    function houseForSale(uint _idHouse) public onlyOwner(_idHouse) {\n        for(uint i = 0; i < houses.length; i++) {\n            if(houses[i].idHome == _idHouse) {\n                houses[i].forSale = true;\n            }\n        }\n    }\n\n    // TESTS UNITAIRES\n    // createHouse OK\n    // mettre en vente\n    // achat\n}",
  "sourcePath": "/Users/lays/Desktop/marketPlace/contracts/MarketContract.sol",
  "compiler": {
    "name": "solc",
    "version": "0.5.16+commit.9c3226ce.Emscripten.clang"
  },
  "schemaVersion": "3.0.23",
  "updatedAt": "2020-03-13T11:31:42.577Z",
  "devdoc": {
    "methods": {}
  },
  "userdoc": {
    "methods": {}
  }
}