{
  "contractName": "MarketContract",
  "abi": [
    {
      "anonymous": false,
      "inputs": [
        {
          "indexed": false,
          "internalType": "uint256",
          "name": "",
          "type": "uint256"
        }
      ],
      "name": "logger",
      "type": "event"
    },
    {
      "anonymous": false,
      "inputs": [
        {
          "indexed": false,
          "internalType": "bool",
          "name": "",
          "type": "bool"
        }
      ],
      "name": "logger",
      "type": "event"
    },
    {
      "anonymous": false,
      "inputs": [
        {
          "indexed": false,
          "internalType": "address",
          "name": "",
          "type": "address"
        }
      ],
      "name": "logger",
      "type": "event"
    },
    {
      "constant": true,
      "inputs": [
        {
          "internalType": "address",
          "name": "",
          "type": "address"
        }
      ],
      "name": "balanceOf",
      "outputs": [
        {
          "internalType": "uint256",
          "name": "",
          "type": "uint256"
        }
      ],
      "payable": false,
      "stateMutability": "view",
      "type": "function"
    },
    {
      "constant": true,
      "inputs": [],
      "name": "getHouseForSale",
      "outputs": [
        {
          "internalType": "uint256",
          "name": "idHome",
          "type": "uint256"
        },
        {
          "internalType": "uint256",
          "name": "price",
          "type": "uint256"
        },
        {
          "internalType": "string",
          "name": "addressHome",
          "type": "string"
        },
        {
          "internalType": "uint256",
          "name": "squareMeter",
          "type": "uint256"
        },
        {
          "internalType": "string",
          "name": "description",
          "type": "string"
        },
        {
          "internalType": "uint256",
          "name": "hashDocuments",
          "type": "uint256"
        },
        {
          "internalType": "address",
          "name": "publicAddressSolder",
          "type": "address"
        },
        {
          "internalType": "bool",
          "name": "forSale",
          "type": "bool"
        }
      ],
      "payable": false,
      "stateMutability": "view",
      "type": "function"
    },
    {
      "constant": true,
      "inputs": [
        {
          "internalType": "uint256",
          "name": "",
          "type": "uint256"
        }
      ],
      "name": "houses",
      "outputs": [
        {
          "internalType": "uint256",
          "name": "idHome",
          "type": "uint256"
        },
        {
          "internalType": "uint256",
          "name": "price",
          "type": "uint256"
        },
        {
          "internalType": "string",
          "name": "addressHome",
          "type": "string"
        },
        {
          "internalType": "uint256",
          "name": "squareMeter",
          "type": "uint256"
        },
        {
          "internalType": "string",
          "name": "description",
          "type": "string"
        },
        {
          "internalType": "uint256",
          "name": "hashDocuments",
          "type": "uint256"
        },
        {
          "internalType": "address",
          "name": "publicAddressSolder",
          "type": "address"
        },
        {
          "internalType": "bool",
          "name": "forSale",
          "type": "bool"
        }
      ],
      "payable": false,
      "stateMutability": "view",
      "type": "function"
    },
    {
      "constant": true,
      "inputs": [
        {
          "internalType": "address",
          "name": "",
          "type": "address"
        }
      ],
      "name": "ownerToHouse",
      "outputs": [
        {
          "internalType": "uint256",
          "name": "",
          "type": "uint256"
        }
      ],
      "payable": false,
      "stateMutability": "view",
      "type": "function"
    },
    {
      "constant": false,
      "inputs": [
        {
          "internalType": "uint256",
          "name": "_id",
          "type": "uint256"
        },
        {
          "internalType": "uint256",
          "name": "_price",
          "type": "uint256"
        },
        {
          "internalType": "string",
          "name": "_addressHome",
          "type": "string"
        },
        {
          "internalType": "uint256",
          "name": "_squareMeter",
          "type": "uint256"
        },
        {
          "internalType": "string",
          "name": "_description",
          "type": "string"
        },
        {
          "internalType": "uint256",
          "name": "_hashDocuments",
          "type": "uint256"
        }
      ],
      "name": "createHouse",
      "outputs": [],
      "payable": false,
      "stateMutability": "nonpayable",
      "type": "function"
    },
    {
      "constant": false,
      "inputs": [
        {
          "internalType": "uint256",
          "name": "index",
          "type": "uint256"
        }
      ],
      "name": "removeAtIndex",
      "outputs": [],
      "payable": false,
      "stateMutability": "nonpayable",
      "type": "function"
    },
    {
      "constant": false,
      "inputs": [
        {
          "internalType": "uint256",
          "name": "_idHome",
          "type": "uint256"
        }
      ],
      "name": "buyingHouse",
      "outputs": [
        {
          "internalType": "bool",
          "name": "",
          "type": "bool"
        }
      ],
      "payable": true,
      "stateMutability": "payable",
      "type": "function"
    },
    {
      "constant": true,
      "inputs": [],
      "name": "getAllHousesWithDetails",
      "outputs": [
        {
          "components": [
            {
              "internalType": "uint256",
              "name": "idHome",
              "type": "uint256"
            },
            {
              "internalType": "uint256",
              "name": "price",
              "type": "uint256"
            },
            {
              "internalType": "string",
              "name": "addressHome",
              "type": "string"
            },
            {
              "internalType": "uint256",
              "name": "squareMeter",
              "type": "uint256"
            },
            {
              "internalType": "string",
              "name": "description",
              "type": "string"
            },
            {
              "internalType": "uint256",
              "name": "hashDocuments",
              "type": "uint256"
            },
            {
              "internalType": "address",
              "name": "publicAddressSolder",
              "type": "address"
            },
            {
              "internalType": "bool",
              "name": "forSale",
              "type": "bool"
            }
          ],
          "internalType": "struct MarketContract.House[]",
          "name": "",
          "type": "tuple[]"
        }
      ],
      "payable": false,
      "stateMutability": "view",
      "type": "function"
    },
    {
      "constant": true,
      "inputs": [
        {
          "internalType": "uint256",
          "name": "_idHouse",
          "type": "uint256"
        }
      ],
      "name": "getHouse",
      "outputs": [
        {
          "components": [
            {
              "internalType": "uint256",
              "name": "idHome",
              "type": "uint256"
            },
            {
              "internalType": "uint256",
              "name": "price",
              "type": "uint256"
            },
            {
              "internalType": "string",
              "name": "addressHome",
              "type": "string"
            },
            {
              "internalType": "uint256",
              "name": "squareMeter",
              "type": "uint256"
            },
            {
              "internalType": "string",
              "name": "description",
              "type": "string"
            },
            {
              "internalType": "uint256",
              "name": "hashDocuments",
              "type": "uint256"
            },
            {
              "internalType": "address",
              "name": "publicAddressSolder",
              "type": "address"
            },
            {
              "internalType": "bool",
              "name": "forSale",
              "type": "bool"
            }
          ],
          "internalType": "struct MarketContract.House",
          "name": "",
          "type": "tuple"
        }
      ],
      "payable": false,
      "stateMutability": "view",
      "type": "function"
    },
    {
      "constant": false,
      "inputs": [
        {
          "internalType": "uint256",
          "name": "_idHouse",
          "type": "uint256"
        }
      ],
      "name": "houseForSale",
      "outputs": [],
      "payable": false,
      "stateMutability": "nonpayable",
      "type": "function"
    },
    {
      "constant": true,
      "inputs": [],
      "name": "getBalance",
      "outputs": [
        {
          "internalType": "uint256",
          "name": "",
          "type": "uint256"
        }
      ],
      "payable": false,
      "stateMutability": "view",
      "type": "function"
    }
  ],
  "bytecode": "0x60806040526003600055600060015534801561001a57600080fd5b50611e4f8061002a6000396000f3fe60806040526004361061009c5760003560e01c80636960fbf6116100645780636960fbf61461019a57806370a08231146101c357806376a48c711461020057806378a949a71461022957806385d10c811461025b578063aeda852f1461028b5761009c565b806307d6471b146100a157806312065fe0146100de5780633107c99d146101095780636478802c14610146578063660861b71461016f575b600080fd5b3480156100ad57600080fd5b506100c860048036036100c391908101906117b0565b6102cf565b6040516100d59190611bdd565b60405180910390f35b3480156100ea57600080fd5b506100f36102e7565b6040516101009190611bdd565b60405180910390f35b34801561011557600080fd5b50610130600480360361012b91908101906117d9565b610306565b60405161013d9190611bbb565b60405180910390f35b34801561015257600080fd5b5061016d600480360361016891908101906117d9565b610567565b005b34801561017b57600080fd5b50610184610673565b6040516101919190611b7e565b60405180910390f35b3480156101a657600080fd5b506101c160048036036101bc9190810190611802565b6108b0565b005b3480156101cf57600080fd5b506101ea60048036036101e591908101906117b0565b610ad1565b6040516101f79190611bdd565b60405180910390f35b34801561020c57600080fd5b50610227600480360361022291908101906117d9565b610ae9565b005b34801561023557600080fd5b5061023e610d0b565b604051610252989796959493929190611bf8565b60405180910390f35b610275600480360361027091908101906117d9565b610e9e565b6040516102829190611ba0565b60405180910390f35b34801561029757600080fd5b506102b260048036036102ad91908101906117d9565b611046565b6040516102c6989796959493929190611bf8565b60405180910390f35b600d6020528060005260406000206000915090505481565b60003073ffffffffffffffffffffffffffffffffffffffff1631905090565b61030e611561565b60008090505b60028054905081101561056057826002828154811061032f57fe5b9060005260206000209060070201600001541415610553576002818154811061035457fe5b9060005260206000209060070201604051806101000160405290816000820154815260200160018201548152602001600282018054600181600116156101000203166002900480601f01602080910402602001604051908101604052809291908181526020018280546001816001161561010002031660029004801561041b5780601f106103f05761010080835404028352916020019161041b565b820191906000526020600020905b8154815290600101906020018083116103fe57829003601f168201915b5050505050815260200160038201548152602001600482018054600181600116156101000203166002900480601f0160208091040260200160405190810160405280929190818152602001828054600181600116156101000203166002900480156104c75780601f1061049c576101008083540402835291602001916104c7565b820191906000526020600020905b8154815290600101906020018083116104aa57829003601f168201915b50505050508152602001600582015481526020016006820160009054906101000a900473ffffffffffffffffffffffffffffffffffffffff1673ffffffffffffffffffffffffffffffffffffffff1673ffffffffffffffffffffffffffffffffffffffff1681526020016006820160149054906101000a900460ff161515151581525050915050610562565b8080600101915050610314565b505b919050565b8080600d60003373ffffffffffffffffffffffffffffffffffffffff1673ffffffffffffffffffffffffffffffffffffffff1681526020019081526020016000205414156105b457600080fd5b7f3a26492830c137b6cedfdd0e23db0e9c7c214e4fd1de32de8ceece1678b771b36002805490506040516105e89190611bdd565b60405180910390a160008090505b60028054905081101561066e57826002828154811061061157fe5b90600052602060002090600702016000015414156106615760016002828154811061063857fe5b906000526020600020906007020160060160146101000a81548160ff0219169083151502179055505b80806001019150506105f6565b505050565b60606002805480602002602001604051908101604052809291908181526020016000905b828210156108a75783829060005260206000209060070201604051806101000160405290816000820154815260200160018201548152602001600282018054600181600116156101000203166002900480601f0160208091040260200160405190810160405280929190818152602001828054600181600116156101000203166002900480156107685780601f1061073d57610100808354040283529160200191610768565b820191906000526020600020905b81548152906001019060200180831161074b57829003601f168201915b5050505050815260200160038201548152602001600482018054600181600116156101000203166002900480601f0160208091040260200160405190810160405280929190818152602001828054600181600116156101000203166002900480156108145780601f106107e957610100808354040283529160200191610814565b820191906000526020600020905b8154815290600101906020018083116107f757829003601f168201915b50505050508152602001600582015481526020016006820160009054906101000a900473ffffffffffffffffffffffffffffffffffffffff1673ffffffffffffffffffffffffffffffffffffffff1673ffffffffffffffffffffffffffffffffffffffff1681526020016006820160149054906101000a900460ff16151515158152505081526020019060010190610697565b50505050905090565b6108b8611561565b6040518061010001604052808881526020018781526020018681526020018581526020018481526020018381526020013373ffffffffffffffffffffffffffffffffffffffff168152602001600015158152509050600281908060018154018082558091505090600182039060005260206000209060070201600090919290919091506000820151816000015560208201518160010155604082015181600201908051906020019061096b9291906115be565b506060820151816003015560808201518160040190805190602001906109929291906115be565b5060a0820151816005015560c08201518160060160006101000a81548173ffffffffffffffffffffffffffffffffffffffff021916908373ffffffffffffffffffffffffffffffffffffffff16021790555060e08201518160060160146101000a81548160ff021916908315150217905550505050600280549050600d60003373ffffffffffffffffffffffffffffffffffffffff1673ffffffffffffffffffffffffffffffffffffffff16815260200190815260200160002081905550600160008154809291906001019190505550600a3390806001815401808255809150509060018203906000526020600020016000909192909190916101000a81548173ffffffffffffffffffffffffffffffffffffffff021916908373ffffffffffffffffffffffffffffffffffffffff1602179055505050505050505050565b600f6020528060005260406000206000915090505481565b6002805490508110610afa57610d08565b60008190505b600160028054905003811015610c655760026001820181548110610b2057fe5b906000526020600020906007020160028281548110610b3b57fe5b9060005260206000209060070201600082015481600001556001820154816001015560028201816002019080546001816001161561010002031660029004610b8492919061163e565b506003820154816003015560048201816004019080546001816001161561010002031660029004610bb692919061163e565b50600582015481600501556006820160009054906101000a900473ffffffffffffffffffffffffffffffffffffffff168160060160006101000a81548173ffffffffffffffffffffffffffffffffffffffff021916908373ffffffffffffffffffffffffffffffffffffffff1602179055506006820160149054906101000a900460ff168160060160146101000a81548160ff0219169083151502179055509050508080600101915050610b00565b50600260016002805490500381548110610c7b57fe5b90600052602060002090600702016000808201600090556001820160009055600282016000610caa91906116c5565b6003820160009055600482016000610cc291906116c5565b60058201600090556006820160006101000a81549073ffffffffffffffffffffffffffffffffffffffff02191690556006820160146101000a81549060ff021916905550505b50565b6003806000015490806001015490806002018054600181600116156101000203166002900480601f016020809104026020016040519081016040528092919081815260200182805460018160011615610100020316600290048015610db15780601f10610d8657610100808354040283529160200191610db1565b820191906000526020600020905b815481529060010190602001808311610d9457829003601f168201915b505050505090806003015490806004018054600181600116156101000203166002900480601f016020809104026020016040519081016040528092919081815260200182805460018160011615610100020316600290048015610e555780601f10610e2a57610100808354040283529160200191610e55565b820191906000526020600020905b815481529060010190602001808311610e3857829003601f168201915b5050505050908060050154908060060160009054906101000a900473ffffffffffffffffffffffffffffffffffffffff16908060060160149054906101000a900460ff16905088565b6000610ea9826111f8565b8015610eba5750610eb9826112e8565b5b15610fbe5760028281548110610ecc57fe5b906000526020600020906007020160010154341415610eea57600080fd5b81600d60003373ffffffffffffffffffffffffffffffffffffffff1673ffffffffffffffffffffffffffffffffffffffff16815260200190815260200160002081905550610f3782610ae9565b7f7e6ed7b81c10acbeb2294f945bc7d3dda11594ee8607c868cfdbbcd4c3e00495610f61836111f8565b604051610f6e9190611ba0565b60405180910390a17f7e6ed7b81c10acbeb2294f945bc7d3dda11594ee8607c868cfdbbcd4c3e00495610fa0836112e8565b604051610fad9190611ba0565b60405180910390a160019050611041565b7f7e6ed7b81c10acbeb2294f945bc7d3dda11594ee8607c868cfdbbcd4c3e00495610fe8836111f8565b604051610ff59190611ba0565b60405180910390a17f7e6ed7b81c10acbeb2294f945bc7d3dda11594ee8607c868cfdbbcd4c3e00495611027836112e8565b6040516110349190611ba0565b60405180910390a1600090505b919050565b6002818154811061105357fe5b9060005260206000209060070201600091509050806000015490806001015490806002018054600181600116156101000203166002900480601f01602080910402602001604051908101604052809291908181526020018280546001816001161561010002031660029004801561110b5780601f106110e05761010080835404028352916020019161110b565b820191906000526020600020905b8154815290600101906020018083116110ee57829003601f168201915b505050505090806003015490806004018054600181600116156101000203166002900480601f0160208091040260200160405190810160405280929190818152602001828054600181600116156101000203166002900480156111af5780601f10611184576101008083540402835291602001916111af565b820191906000526020600020905b81548152906001019060200180831161119257829003601f168201915b5050505050908060050154908060060160009054906101000a900473ffffffffffffffffffffffffffffffffffffffff16908060060160149054906101000a900460ff16905088565b600080600090505b600a805490508110156112dd5782600d6000600a848154811061121f57fe5b9060005260206000200160009054906101000a900473ffffffffffffffffffffffffffffffffffffffff1673ffffffffffffffffffffffffffffffffffffffff1673ffffffffffffffffffffffffffffffffffffffff168152602001908152602001600020541480156112c15750600115156002848154811061129e57fe5b906000526020600020906007020160060160149054906101000a900460ff161515145b156112d05760019150506112e3565b8080600101915050611200565b50600090505b919050565b60006112f2611561565b60008090505b60028054905081101561153f57836002828154811061131357fe5b9060005260206000209060070201600001541415611532576002818154811061133857fe5b9060005260206000209060070201604051806101000160405290816000820154815260200160018201548152602001600282018054600181600116156101000203166002900480601f0160208091040260200160405190810160405280929190818152602001828054600181600116156101000203166002900480156113ff5780601f106113d4576101008083540402835291602001916113ff565b820191906000526020600020905b8154815290600101906020018083116113e257829003601f168201915b5050505050815260200160038201548152602001600482018054600181600116156101000203166002900480601f0160208091040260200160405190810160405280929190818152602001828054600181600116156101000203166002900480156114ab5780601f10611480576101008083540402835291602001916114ab565b820191906000526020600020905b81548152906001019060200180831161148e57829003601f168201915b50505050508152602001600582015481526020016006820160009054906101000a900473ffffffffffffffffffffffffffffffffffffffff1673ffffffffffffffffffffffffffffffffffffffff1673ffffffffffffffffffffffffffffffffffffffff1681526020016006820160149054906101000a900460ff16151515158152505091505b80806001019150506112f8565b50806020015134141561155657600191505061155c565b60009150505b919050565b604051806101000160405280600081526020016000815260200160608152602001600081526020016060815260200160008152602001600073ffffffffffffffffffffffffffffffffffffffff1681526020016000151581525090565b828054600181600116156101000203166002900490600052602060002090601f016020900481019282601f106115ff57805160ff191683800117855561162d565b8280016001018555821561162d579182015b8281111561162c578251825591602001919060010190611611565b5b50905061163a919061170d565b5090565b828054600181600116156101000203166002900490600052602060002090601f016020900481019282601f1061167757805485556116b4565b828001600101855582156116b457600052602060002091601f016020900482015b828111156116b3578254825591600101919060010190611698565b5b5090506116c1919061170d565b5090565b50805460018160011615610100020316600290046000825580601f106116eb575061170a565b601f016020900490600052602060002090810190611709919061170d565b5b50565b61172f91905b8082111561172b576000816000905550600101611713565b5090565b90565b60008135905061174181611dde565b92915050565b600082601f83011261175857600080fd5b813561176b61176682611cb1565b611c84565b9150808252602083016020830185838301111561178757600080fd5b611792838284611d8b565b50505092915050565b6000813590506117aa81611df5565b92915050565b6000602082840312156117c257600080fd5b60006117d084828501611732565b91505092915050565b6000602082840312156117eb57600080fd5b60006117f98482850161179b565b91505092915050565b60008060008060008060c0878903121561181b57600080fd5b600061182989828a0161179b565b965050602061183a89828a0161179b565b955050604087013567ffffffffffffffff81111561185757600080fd5b61186389828a01611747565b945050606061187489828a0161179b565b935050608087013567ffffffffffffffff81111561189157600080fd5b61189d89828a01611747565b92505060a06118ae89828a0161179b565b9150509295509295509295565b60006118c78383611aa9565b905092915050565b6118d881611d43565b82525050565b6118e781611d43565b82525050565b60006118f882611ced565b6119028185611d10565b93508360208202850161191485611cdd565b8060005b85811015611950578484038952815161193185826118bb565b945061193c83611d03565b925060208a01995050600181019050611918565b50829750879550505050505092915050565b61196b81611d55565b82525050565b61197a81611d55565b82525050565b600061198b82611cf8565b6119958185611d21565b93506119a5818560208601611d9a565b6119ae81611dcd565b840191505092915050565b60006119c482611cf8565b6119ce8185611d32565b93506119de818560208601611d9a565b6119e781611dcd565b840191505092915050565b600061010083016000830151611a0b6000860182611b60565b506020830151611a1e6020860182611b60565b5060408301518482036040860152611a368282611980565b9150506060830151611a4b6060860182611b60565b5060808301518482036080860152611a638282611980565b91505060a0830151611a7860a0860182611b60565b5060c0830151611a8b60c08601826118cf565b5060e0830151611a9e60e0860182611962565b508091505092915050565b600061010083016000830151611ac26000860182611b60565b506020830151611ad56020860182611b60565b5060408301518482036040860152611aed8282611980565b9150506060830151611b026060860182611b60565b5060808301518482036080860152611b1a8282611980565b91505060a0830151611b2f60a0860182611b60565b5060c0830151611b4260c08601826118cf565b5060e0830151611b5560e0860182611962565b508091505092915050565b611b6981611d81565b82525050565b611b7881611d81565b82525050565b60006020820190508181036000830152611b9881846118ed565b905092915050565b6000602082019050611bb56000830184611971565b92915050565b60006020820190508181036000830152611bd581846119f2565b905092915050565b6000602082019050611bf26000830184611b6f565b92915050565b600061010082019050611c0e600083018b611b6f565b611c1b602083018a611b6f565b8181036040830152611c2d81896119b9565b9050611c3c6060830188611b6f565b8181036080830152611c4e81876119b9565b9050611c5d60a0830186611b6f565b611c6a60c08301856118de565b611c7760e0830184611971565b9998505050505050505050565b6000604051905081810181811067ffffffffffffffff82111715611ca757600080fd5b8060405250919050565b600067ffffffffffffffff821115611cc857600080fd5b601f19601f8301169050602081019050919050565b6000819050602082019050919050565b600081519050919050565b600081519050919050565b6000602082019050919050565b600082825260208201905092915050565b600082825260208201905092915050565b600082825260208201905092915050565b6000611d4e82611d61565b9050919050565b60008115159050919050565b600073ffffffffffffffffffffffffffffffffffffffff82169050919050565b6000819050919050565b82818337600083830152505050565b60005b83811015611db8578082015181840152602081019050611d9d565b83811115611dc7576000848401525b50505050565b6000601f19601f8301169050919050565b611de781611d43565b8114611df257600080fd5b50565b611dfe81611d81565b8114611e0957600080fd5b5056fea365627a7a72315820a7531138457b3803eb607c42a227706767e47129e90a7c5a4a677a240d19137f6c6578706572696d656e74616cf564736f6c63430005100040",
  "source": "pragma solidity >=0.4.21 <0.7.0;\npragma experimental ABIEncoderV2;\n\ncontract MarketContract {\n\n    uint nbHouseAllowed = 3;\n    uint countHouses = 0;\n\n    // Caractristiques d'une maison\n    struct House {\n        uint idHome;\n        uint price;\n        string addressHome;\n        uint squareMeter;\n        string description;\n        uint hashDocuments; // une emprunte RGPD de la maison\n        address publicAddressSolder;\n        bool forSale;\n        //others elements\n    }\n\n    event logger(uint);\n    event logger(bool);\n    event logger(address);\n\n    House[] public houses;\n    House public getHouseForSale;\n    address[] owners;\n\n    address houseOwner;\n    address houseBuyer;\n\n    mapping (address => uint) public ownerToHouse;\n    mapping (address => uint) ownerHouseCount;\n    mapping (address => uint256) public balanceOf;\n\n    //vrifier si une maison appartient bien au bon propritaire\n    modifier onlyOwner(uint _idHome) {\n        require(ownerToHouse[msg.sender] != _idHome);\n        _;\n    }\n\n    // crer des maisons\n    function createHouse(\n        uint _id, uint _price, string memory _addressHome, uint _squareMeter, string memory _description, uint _hashDocuments\n    ) public {\n        House memory newHouse = House(_id, _price, _addressHome, _squareMeter, _description, _hashDocuments, msg.sender, false);\n        houses.push(newHouse);\n        ownerToHouse[msg.sender] = houses.length;\n        countHouses++;\n        owners.push(msg.sender);\n    }\n\n    // Vrifie si la maison est bien dans la liste des maisons  vendre\n    function checkHouseForSale(uint _idHome) private view returns (bool) {\n        for(uint i = 0; i < owners.length; i++) {\n            if (ownerToHouse[owners[i]] == _idHome && houses[_idHome].forSale == true) {\n                return true;\n            }\n        }\n        return false;\n    }\n\n    // Vrifier le prix de la maison\n    function checkPriceHouse(uint _idHouse) private returns (bool) {\n        House memory house;\n        for(uint i = 0; i < houses.length; i++) {\n            if(houses[i].idHome == _idHouse) {\n               house = houses[i];\n            }\n        }\n\n        if (msg.value == house.price) return true;\n        return false;\n    }\n\n\n    function removeAtIndex(uint index) public {\n        if (index >= houses.length) return;\n\n        for (uint i = index; i < houses.length-1; i++) {\n        houses[i] = houses[i+1];\n        }\n\n        delete houses[houses.length-1];\n        //houses.length--;\n    }\n\n    /* Send coins */\n    // function transfer(address _to, uint256 _value) public {\n    //     require(balanceOf[msg.sender] >= _value);           // Check if the sender has enough\n    //     require(balanceOf[_to] + _value >= balanceOf[_to]); // Check for overflows\n    //     balanceOf[msg.sender] -= _value;                    // Subtract from the sender\n    //     balanceOf[_to] += _value;                           // Add the same to the recipient\n    // }\n\n    // function purchase of an hous\n    // address payable => transfrer\n    // fct public payable => recevoir\n    function buyingHouse(uint _idHome) public payable returns (bool) {\n        if(checkHouseForSale(_idHome) && checkPriceHouse(_idHome)) { // checker si la maison est en vente, si le montant est correct\n            //_addressBuyer.transfer(houses[_idHome].price); \n            require(msg.value != houses[_idHome].price);             // transfer ethers\n            ownerToHouse[msg.sender] = _idHome;                      // transfert de proprit: obtenir la maison du vendeur et mettre l'addresse de l'acheteur\n            removeAtIndex(_idHome);                                  // enlever la maison de la liste de ventes\n            emit logger(checkHouseForSale(_idHome));\n            emit logger(checkPriceHouse(_idHome));\n            return true;\n        }\n        emit logger(checkHouseForSale(_idHome));\n        emit logger(checkPriceHouse(_idHome));\n        return false;\n    }\n\n    // Get all details of houses\n    function getAllHousesWithDetails() public view returns(House[] memory) {\n        return houses;\n    }\n\n    function getHouse(uint _idHouse) public view returns (House memory) {\n        for(uint i = 0; i < houses.length; i++) {\n            if(houses[i].idHome == _idHouse) {\n                return houses[i];\n            }\n        }\n    }\n\n    // Put house for sale by an owner\n    function houseForSale(uint _idHouse) public onlyOwner(_idHouse) {\n        emit logger(houses.length);\n       for(uint i = 0; i < houses.length; i++) {\n            if(houses[i].idHome == _idHouse) {\n                houses[i].forSale = true;\n            }\n        }\n    }\n\n    function getBalance() public view returns (uint) {\n        return address(uint160(address(this))).balance;\n    }\n}",
  "sourcePath": "/Users/lays/Desktop/marketPlace/contracts/MarketContract.sol",
  "compiler": {
    "name": "solc",
    "version": "0.5.16+commit.9c3226ce.Emscripten.clang"
  },
  "schemaVersion": "3.0.23",
  "updatedAt": "2020-03-13T14:21:04.929Z",
  "networkType": "ethereum",
  "devdoc": {
    "methods": {}
  },
  "userdoc": {
    "methods": {}
  }
}