{
  "contractName": "MarketPlaceFactory",
  "abi": [
    {
      "constant": true,
      "inputs": [
        {
          "internalType": "uint256",
          "name": "",
          "type": "uint256"
        }
      ],
      "name": "xxxxx",
      "outputs": [
        {
          "internalType": "address",
          "name": "",
          "type": "address"
        }
      ],
      "payable": false,
      "stateMutability": "view",
      "type": "function"
    }
  ],
  "bytecode": "0x608060405234801561001057600080fd5b50610100806100206000396000f3fe6080604052348015600f57600080fd5b506004361060285760003560e01c80631d2f4bc514602d575b600080fd5b605660048036036020811015604157600080fd5b81019080803590602001909291905050506098565b604051808273ffffffffffffffffffffffffffffffffffffffff1673ffffffffffffffffffffffffffffffffffffffff16815260200191505060405180910390f35b60006020528060005260406000206000915054906101000a900473ffffffffffffffffffffffffffffffffffffffff168156fea265627a7a72315820cba4548d43cb4af263b4a098c9b9a2ea6c3f047e764bd88d88a6d3088574380764736f6c63430005100032",
  "source": "pragma solidity >=0.4.21 <0.7.0;\n\ncontract MarketPlaceFactory {\n\n    struct UpDForSale {\n        uint price;\n        string addressMarket; //bit32\n        uint squareMeter;\n        string description;\n        string hashDocuments;\n        string publicAddressSolder;\n        //others;\n    }\n\n    struct Purchase {\n        uint id;\n        string addressBuyer;\n    }\n\n    mapping (uint => address) public xxxxx;\n\n    /*function buying(uint _id, string memory _addressBuyer) {\n\n    }*/\n}",
  "sourcePath": "/Users/lays/Desktop/marketPlace/contracts/Contract.sol",
  "compiler": {
    "name": "solc",
    "version": "0.5.16+commit.9c3226ce.Emscripten.clang"
  },
  "schemaVersion": "3.0.23",
  "updatedAt": "2020-03-12T11:26:36.417Z",
  "devdoc": {
    "methods": {}
  },
  "userdoc": {
    "methods": {}
  }
}