{
  "contractName": "MarketPlaceFactory",
  "abi": [
    {
      "constant": true,
      "inputs": [
        {
          "internalType": "uint256",
          "name": "",
          "type": "uint256"
        }
      ],
      "name": "houses",
      "outputs": [
        {
          "internalType": "uint256",
          "name": "idHome",
          "type": "uint256"
        },
        {
          "internalType": "uint256",
          "name": "price",
          "type": "uint256"
        },
        {
          "internalType": "bytes32",
          "name": "addressHome",
          "type": "bytes32"
        },
        {
          "internalType": "uint256",
          "name": "squareMeter",
          "type": "uint256"
        },
        {
          "internalType": "bytes32",
          "name": "description",
          "type": "bytes32"
        },
        {
          "internalType": "uint256",
          "name": "hashDocuments",
          "type": "uint256"
        },
        {
          "internalType": "bytes32",
          "name": "publicAddressSolder",
          "type": "bytes32"
        },
        {
          "internalType": "bool",
          "name": "forSale",
          "type": "bool"
        }
      ],
      "payable": false,
      "stateMutability": "view",
      "type": "function"
    },
    {
      "constant": true,
      "inputs": [
        {
          "internalType": "address",
          "name": "",
          "type": "address"
        }
      ],
      "name": "ownerToHouse",
      "outputs": [
        {
          "internalType": "uint256",
          "name": "",
          "type": "uint256"
        }
      ],
      "payable": false,
      "stateMutability": "view",
      "type": "function"
    },
    {
      "constant": false,
      "inputs": [
        {
          "internalType": "uint256",
          "name": "_id",
          "type": "uint256"
        },
        {
          "internalType": "uint256",
          "name": "_price",
          "type": "uint256"
        },
        {
          "internalType": "bytes32",
          "name": "_addressHome",
          "type": "bytes32"
        },
        {
          "internalType": "uint256",
          "name": "_squareMeter",
          "type": "uint256"
        },
        {
          "internalType": "bytes32",
          "name": "_description",
          "type": "bytes32"
        },
        {
          "internalType": "uint256",
          "name": "_hashDocuments",
          "type": "uint256"
        },
        {
          "internalType": "bytes32",
          "name": "_publicAddressSolder",
          "type": "bytes32"
        }
      ],
      "name": "createHouse",
      "outputs": [],
      "payable": false,
      "stateMutability": "nonpayable",
      "type": "function"
    },
    {
      "constant": false,
      "inputs": [
        {
          "internalType": "uint256",
          "name": "index",
          "type": "uint256"
        }
      ],
      "name": "removeAtIndex",
      "outputs": [],
      "payable": false,
      "stateMutability": "nonpayable",
      "type": "function"
    },
    {
      "constant": false,
      "inputs": [
        {
          "internalType": "uint256",
          "name": "_idHome",
          "type": "uint256"
        },
        {
          "internalType": "address payable",
          "name": "_addressBuyer",
          "type": "address"
        }
      ],
      "name": "buyingHouse",
      "outputs": [],
      "payable": true,
      "stateMutability": "payable",
      "type": "function"
    },
    {
      "constant": true,
      "inputs": [],
      "name": "getAllHousesWithDetails",
      "outputs": [
        {
          "components": [
            {
              "internalType": "uint256",
              "name": "idHome",
              "type": "uint256"
            },
            {
              "internalType": "uint256",
              "name": "price",
              "type": "uint256"
            },
            {
              "internalType": "bytes32",
              "name": "addressHome",
              "type": "bytes32"
            },
            {
              "internalType": "uint256",
              "name": "squareMeter",
              "type": "uint256"
            },
            {
              "internalType": "bytes32",
              "name": "description",
              "type": "bytes32"
            },
            {
              "internalType": "uint256",
              "name": "hashDocuments",
              "type": "uint256"
            },
            {
              "internalType": "bytes32",
              "name": "publicAddressSolder",
              "type": "bytes32"
            },
            {
              "internalType": "bool",
              "name": "forSale",
              "type": "bool"
            }
          ],
          "internalType": "struct MarketPlaceFactory.House[]",
          "name": "",
          "type": "tuple[]"
        }
      ],
      "payable": false,
      "stateMutability": "view",
      "type": "function"
    },
    {
      "constant": false,
      "inputs": [
        {
          "internalType": "uint256",
          "name": "_idHouse",
          "type": "uint256"
        }
      ],
      "name": "getHouse",
      "outputs": [
        {
          "components": [
            {
              "internalType": "uint256",
              "name": "idHome",
              "type": "uint256"
            },
            {
              "internalType": "uint256",
              "name": "price",
              "type": "uint256"
            },
            {
              "internalType": "bytes32",
              "name": "addressHome",
              "type": "bytes32"
            },
            {
              "internalType": "uint256",
              "name": "squareMeter",
              "type": "uint256"
            },
            {
              "internalType": "bytes32",
              "name": "description",
              "type": "bytes32"
            },
            {
              "internalType": "uint256",
              "name": "hashDocuments",
              "type": "uint256"
            },
            {
              "internalType": "bytes32",
              "name": "publicAddressSolder",
              "type": "bytes32"
            },
            {
              "internalType": "bool",
              "name": "forSale",
              "type": "bool"
            }
          ],
          "internalType": "struct MarketPlaceFactory.House",
          "name": "",
          "type": "tuple"
        }
      ],
      "payable": false,
      "stateMutability": "nonpayable",
      "type": "function"
    },
    {
      "constant": false,
      "inputs": [
        {
          "internalType": "uint256",
          "name": "_idHouse",
          "type": "uint256"
        }
      ],
      "name": "houseForSale",
      "outputs": [],
      "payable": false,
      "stateMutability": "nonpayable",
      "type": "function"
    }
  ],
  "bytecode": "0x60806040526003600055600060015534801561001a57600080fd5b50610e888061002a6000396000f3fe60806040526004361061007b5760003560e01c8063660861b71161004e578063660861b71461013f57806376a48c711461016a578063aeda852f14610193578063da3654f1146101d75761007b565b806307d6471b146100805780633107c99d146100bd578063368ef2b7146100fa5780636478802c14610116575b600080fd5b34801561008c57600080fd5b506100a760048036036100a29190810190610934565b610200565b6040516100b49190610cb3565b60405180910390f35b3480156100c957600080fd5b506100e460048036036100df919081019061095d565b610218565b6040516100f19190610c97565b60405180910390f35b610114600480360361010f9190810190610986565b6102af565b005b34801561012257600080fd5b5061013d6004803603610138919081019061095d565b610384565b005b34801561014b57600080fd5b506101546103ac565b6040516101619190610c75565b60405180910390f35b34801561017657600080fd5b50610191600480360361018c919081019061095d565b61046d565b005b34801561019f57600080fd5b506101ba60048036036101b5919081019061095d565b6105c7565b6040516101ce989796959493929190610cce565b60405180910390f35b3480156101e357600080fd5b506101fe60048036036101f991908101906109c2565b610629565b005b60066020528060005260406000206000915090505481565b610220610890565b6002828154811061022d57fe5b906000526020600020906008020160405180610100016040529081600082015481526020016001820154815260200160028201548152602001600382015481526020016004820154815260200160058201548152602001600682015481526020016007820160009054906101000a900460ff1615151515815250509050919050565b6102b8826107d2565b80156102c857506102c7610887565b5b15610380578073ffffffffffffffffffffffffffffffffffffffff166108fc600284815481106102f457fe5b9060005260206000209060080201600101549081150290604051600060405180830381858888f19350505050158015610331573d6000803e3d6000fd5b5081600660008373ffffffffffffffffffffffffffffffffffffffff1673ffffffffffffffffffffffffffffffffffffffff1681526020019081526020016000208190555061037f8261046d565b5b5050565b61038c610890565b61039582610218565b905060018160e00190151590811515815250505050565b60606002805480602002602001604051908101604052809291908181526020016000905b82821015610464578382906000526020600020906008020160405180610100016040529081600082015481526020016001820154815260200160028201548152602001600382015481526020016004820154815260200160058201548152602001600682015481526020016007820160009054906101000a900460ff161515151581525050815260200190600101906103d0565b50505050905090565b600280549050811061047e576105c4565b60008190505b60016002805490500381101561055057600260018201815481106104a457fe5b9060005260206000209060080201600282815481106104bf57fe5b9060005260206000209060080201600082015481600001556001820154816001015560028201548160020155600382015481600301556004820154816004015560058201548160050155600682015481600601556007820160009054906101000a900460ff168160070160006101000a81548160ff0219169083151502179055509050508080600101915050610484565b5060026001600280549050038154811061056657fe5b90600052602060002090600802016000808201600090556001820160009055600282016000905560038201600090556004820160009055600582016000905560068201600090556007820160006101000a81549060ff021916905550505b50565b600281815481106105d457fe5b90600052602060002090600802016000915090508060000154908060010154908060020154908060030154908060040154908060050154908060060154908060070160009054906101000a900460ff16905088565b610631610890565b60405180610100016040528089815260200188815260200187815260200186815260200185815260200184815260200183815260200160001515815250905060028190806001815401808255809150509060018203906000526020600020906008020160009091929091909150600082015181600001556020820151816001015560408201518160020155606082015181600301556080820151816004015560a0820151816005015560c0820151816006015560e08201518160070160006101000a81548160ff021916908315150217905550505050600280549050600660003373ffffffffffffffffffffffffffffffffffffffff1673ffffffffffffffffffffffffffffffffffffffff1681526020019081526020016000208190555060016000815480929190600101919050555060033390806001815401808255809150509060018203906000526020600020016000909192909190916101000a81548173ffffffffffffffffffffffffffffffffffffffff021916908373ffffffffffffffffffffffffffffffffffffffff160217905550505050505050505050565b600080600090505b60038054905081101561087c578260066000600384815481106107f957fe5b9060005260206000200160009054906101000a900473ffffffffffffffffffffffffffffffffffffffff1673ffffffffffffffffffffffffffffffffffffffff1673ffffffffffffffffffffffffffffffffffffffff16815260200190815260200160002054141561086f576001915050610882565b80806001019150506107da565b50600090505b919050565b60006001905090565b604051806101000160405280600081526020016000815260200160008019168152602001600081526020016000801916815260200160008152602001600080191681526020016000151581525090565b6000813590506108ef81610de9565b92915050565b60008135905061090481610e00565b92915050565b60008135905061091981610e17565b92915050565b60008135905061092e81610e2e565b92915050565b60006020828403121561094657600080fd5b6000610954848285016108e0565b91505092915050565b60006020828403121561096f57600080fd5b600061097d8482850161091f565b91505092915050565b6000806040838503121561099957600080fd5b60006109a78582860161091f565b92505060206109b8858286016108f5565b9150509250929050565b600080600080600080600060e0888a0312156109dd57600080fd5b60006109eb8a828b0161091f565b97505060206109fc8a828b0161091f565b9650506040610a0d8a828b0161090a565b9550506060610a1e8a828b0161091f565b9450506080610a2f8a828b0161090a565b93505060a0610a408a828b0161091f565b92505060c0610a518a828b0161090a565b91505092959891949750929550565b6000610a6c8383610bb5565b6101008301905092915050565b6000610a8482610d5c565b610a8e8185610d74565b9350610a9983610d4c565b8060005b83811015610aca578151610ab18882610a60565b9750610abc83610d67565b925050600181019050610a9d565b5085935050505092915050565b610ae081610da9565b82525050565b610aef81610da9565b82525050565b610afe81610db5565b82525050565b610b0d81610db5565b82525050565b61010082016000820151610b2a6000850182610c57565b506020820151610b3d6020850182610c57565b506040820151610b506040850182610af5565b506060820151610b636060850182610c57565b506080820151610b766080850182610af5565b5060a0820151610b8960a0850182610c57565b5060c0820151610b9c60c0850182610af5565b5060e0820151610baf60e0850182610ad7565b50505050565b61010082016000820151610bcc6000850182610c57565b506020820151610bdf6020850182610c57565b506040820151610bf26040850182610af5565b506060820151610c056060850182610c57565b506080820151610c186080850182610af5565b5060a0820151610c2b60a0850182610c57565b5060c0820151610c3e60c0850182610af5565b5060e0820151610c5160e0850182610ad7565b50505050565b610c6081610ddf565b82525050565b610c6f81610ddf565b82525050565b60006020820190508181036000830152610c8f8184610a79565b905092915050565b600061010082019050610cad6000830184610b13565b92915050565b6000602082019050610cc86000830184610c66565b92915050565b600061010082019050610ce4600083018b610c66565b610cf1602083018a610c66565b610cfe6040830189610b04565b610d0b6060830188610c66565b610d186080830187610b04565b610d2560a0830186610c66565b610d3260c0830185610b04565b610d3f60e0830184610ae6565b9998505050505050505050565b6000819050602082019050919050565b600081519050919050565b6000602082019050919050565b600082825260208201905092915050565b6000610d9082610dbf565b9050919050565b6000610da282610dbf565b9050919050565b60008115159050919050565b6000819050919050565b600073ffffffffffffffffffffffffffffffffffffffff82169050919050565b6000819050919050565b610df281610d85565b8114610dfd57600080fd5b50565b610e0981610d97565b8114610e1457600080fd5b50565b610e2081610db5565b8114610e2b57600080fd5b50565b610e3781610ddf565b8114610e4257600080fd5b5056fea365627a7a7231582017e136c51a6ea787f23233a36bb64a415a05a67df0b8cd2459c0194e30d5a8656c6578706572696d656e74616cf564736f6c63430005100040",
  "source": "pragma solidity >=0.4.21 <0.7.0;\npragma experimental ABIEncoderV2;\n\ncontract MarketPlaceFactory {\n\n    uint nbHouseAllowed = 3;\n    uint countHouses = 0;\n\n    // Caractéristiques d'une maison\n    struct House {\n        uint idHome;\n        uint price;\n        bytes32 addressHome; //bit32\n        uint squareMeter;\n        bytes32 description;\n        uint hashDocuments;\n        bytes32 publicAddressSolder;\n        bool forSale;\n        //others elements\n    }\n\n    House[] public houses;\n    address[] owners;\n\n    address houseOwner;\n    address houseBuyer;\n\n    mapping (address => uint) public ownerToHouse;\n    mapping (address => uint) ownerHouseCount;\n\n    //vérifier si une maison appartient bien au bon propriétaire\n    modifier onlyOwner() {\n        require(msg.sender == houseOwner);\n        _;\n    }\n\n    // modifier canCreateHouse(uint _idHome) {\n    //     ownerHouseCount[msg.sender]++;\n    //     countHouses++;\n    //     _;\n    // }\n\n    // créer des maisons\n    function createHouse(\n        uint _id, uint _price, bytes32 _addressHome, uint _squareMeter, bytes32 _description, uint _hashDocuments, bytes32 _publicAddressSolder\n    ) public {\n        House memory newHouse = House(_id, _price, _addressHome, _squareMeter, _description, _hashDocuments, _publicAddressSolder, false);\n        houses.push(newHouse);\n        ownerToHouse[msg.sender] = houses.length;\n        countHouses++;\n        owners.push(msg.sender);\n    }\n\n    // Vérifie si la maison est bien dans la liste des maisons à vendre\n    function checkHouseForSale(uint _idHome) private view returns (bool) {\n        for(uint i = 0; i < owners.length; i++) {\n            if (ownerToHouse[owners[i]] == _idHome) {\n                return true;\n            }\n        }\n        return false;\n    }\n\n    function checkPriceHouse() private view returns (bool) {\n        //require();\n        return true;\n    }\n\n\n    function removeAtIndex(uint index) public {\n        if (index >= houses.length) return;\n\n        for (uint i = index; i < houses.length-1; i++) {\n        houses[i] = houses[i+1];\n        }\n\n        delete houses[houses.length-1];\n        //houses.length--;\n    }\n\n    // function ACHAT d'une maison\n    function buyingHouse(uint _idHome, address payable _addressBuyer) public payable {\n        // checker si la maison est en vente, si le montant est correct\n        if(checkHouseForSale(_idHome) && checkPriceHouse()) {\n            // transfer ethers\n            _addressBuyer.transfer(houses[_idHome].price);\n            // transfert de propriété: obtenir la maison du vendeur et mettre l'addresse de l'acheteur\n            ownerToHouse[_addressBuyer] = _idHome;\n            // enlever la maison de la liste de ventes\n            removeAtIndex(_idHome);\n        }\n    }\n\n    function getAllHousesWithDetails() public view returns(House[] memory) {\n        return houses;\n    }\n\n    function getHouse(uint _idHouse) public returns (House memory) {\n        return houses[_idHouse];\n    }\n\n    function houseForSale(uint _idHouse) public {\n        House memory houseForSale = getHouse(_idHouse);\n        houseForSale.forSale = true;\n    }\n\n    // TESTS\n    // createHouse\n    // mettre en vente\n    // achat\n}",
  "sourcePath": "/Users/lays/Desktop/marketPlace/contracts/Contract.sol",
  "compiler": {
    "name": "solc",
    "version": "0.5.16+commit.9c3226ce.Emscripten.clang"
  },
  "schemaVersion": "3.0.23",
  "updatedAt": "2020-03-12T16:12:27.133Z",
  "devdoc": {
    "methods": {}
  },
  "userdoc": {
    "methods": {}
  }
}